:100000007581607580007590FF75A00075F00078AF
:10001000007E007F001145E8B53002800CF53011FC
:100020009911FCE53011C83110312580E8C2B7D2F2
:10003000B6C2B500D2B50020B4FDC2B7C2B63121F8
:10004000A89088A0227D007E007F04112DE82DFD60
:1000500050010E3125DFF4EE13FEED13FDEE13FE1D
:10006000ED13F822C2A4C2A5C2A6C2A7A2E492A41C
:10007000A2E592A5A2E692A6A2E792A7D2A2312576
:10008000C2A2312522C2A0C2A11164C4116422D22D
:10009000A0C2A11164C4116422312C7403118531F2
:1000A000217403118531217402118574281185741E
:1000B0000C11857406118574011185312531257463
:1000C0008011853125312522E875F06484F9E5F049
:1000D00075F00A84FAABF0E960042430118FE970FE
:1000E00003EA6005EA2430118FE94A7003EB6007E8
:1000F000EB2430118F80047430118F22900109E4B9
:08010000936005118FA380F745
:100108002254454D503A200090011DE4936005119A
:100118008FA380F722206F4300000000227EC831A1
:1001280021DEFC227F143125DFFC227DFA314031AB
:100138004031403140DDF6227EFA7FFADEFEDFFEF6
:010148002294
:00000001FF
