:10000000758160111B7448115774451157744C1158
:1000100057744C1157744F115780FE118974031196
:1000200050118211501182115011827402115074BA
:10003000281142740C11427401114211827406118C
:100040004222FDC454F01169ED54F0116911792276
:1000500054F01169117922D2A0C2A1FDC454F0114B
:1000600069ED54F01169117922C2A4C2A5C2A6C2D9
:10007000A742A0D2A200C2A2227FFA7EFADEFEDF51
:10008000FA221179117911792211821182118211CA
:020090008222CA
:00000001FF
